:060E820074696D653A0081
:0C0E6A0002080000020A0000020C000058
:080E7A0075A07F120E4080FEFE
:03000B00020D578C
:0B0D5700C0E0C0D075D000C000C00795
:100D6200758A66758CFC0509E50970020508C3944D
:100D7200F4E50894014013750800750900AFA078E6
:0A0D820001EF08800103D8FDF5A081
:090D8C00D007D000D0D0D0E03235
:03001B00020C7D57
:100C7D00C0E0C0F0C083C082C0D075D000C000C03D
:0D0C8D0001C002C003C004C005C006C007BE
:100C9A00758B66758DFC050BE50B7002050AC3940E
:100CAA00E8E50A94034026750A00750B00050DE570
:100CBA000D7002050C7BFF7A0E7982E4FDFF1209A2
:0D0CCA0096850D197B037D01E4FF120A40A1
:100CD700D007D006D005D004D003D002D001D00071
:0B0CE700D0D0D082D083D0F0D0E0321B
:100E1100EF1FAC0670011E4C600D0000007D0B7CC5
:070E2100BEDCFEDDFC80E9F0
:010E280022A7
:020E8D00200043
:030E7600011D005B
:100DF600C2A6C2A5C2A78F807F017E00120E11D2A5
:0B0E0600A77F017E00120E11C2A72280
:0A0D9500AB18AA19A91A120BFDFFF2
:100D9F00D2A6C2A5C2A78F807F017E00120E11D2EC
:0B0DAF00A77F017E00120E11C2A722D8
:100DDA00E51D70177F38120DF67F0C120DF67F068F
:0C0DEA00120DF67F01120DF6751D01229E
:100996008F168D178B188A19891A120DDAD3E51658
:1009A600940F7480948040047F0180027F00E517D5
:1009B600FD7C00D394017480948040047E01800203
:1009C6007E00EE4F7073C3ED9401EC64809480500A
:1009D60034AB18AA19A91A120BFD605DC3E516946B
:1009E6001074809480E51650042480800224B0FFA1
:1009F600120DF6120D957401251AF51AE43519F53E
:100A060019051680CCAB18AA19A91A120BFD602974
:100A1600C3E516941074809480E516500424C080B3
:100A2600022470FF120DF6120D957401251AF51A9F
:0A0A3600E43519F519051680CC22ED
:060A40008F168D178B18C4
:100A460085191A120DDAAF181518EF7003020AE6A7
:100A5600D3E516940F7480948040047F0180027F52
:100A660000E517FD7C00D394017480948040047ED9
:100A76000180027E00EE4F7067C3ED9401EC648046
:100A86009480E51650042480800224C0FF120DF6DF
:100A9600E518FD7C007F0A7E00120DBAAD1A7C00B7
:100AA600CFCDCFCECCCE120C28EF2430FF120D9F27
:100AB6000516D3E516940F748094804005751601CB
:100AC6000517E518FD7C007F0A7E00120DBAAD1AE7
:100AD6007C00CFCDCFCECCCE120C288D1A020A4C7C
:010AE60022ED
:060B73008F0F8D108B11A5
:100B7900850F12851013E4F514F515120DDAD3E576
:100B89001094017480948040047F0180027F00E505
:100B99000FD3940F7480948040047E0180027E00FC
:100BA900EE4FFFE51170047E0180027E00EE4F706A
:100BB90042C3E51595117480F865149850357BFF8B
:100BC9007A0E798DAD13AF12120996AF120512D3B1
:100BD900EF940F748094804005E4F5120513D3E572
:100BE90010940174809480500A0515E51570C205AA
:030BF9001480BEA7
:010BFC0022D6
:050E88007F01020DF6E0
:10080000E4F51EE51E60030209937590FFC2932074
:1008100097137F14FE120E113097FD7F147E001285
:100820000E11751E012096147F147E00120E1130D9
:1008300096FD7F147E00120E11751E052095147F03
:10084000147E00120E113095FD7F147E00120E11E1
:10085000751E092094147F147E00120E113094FD31
:100860007F147E00120E11751E0D7590FFC292202E
:1008700097147F147E00120E113097FD7F147E00B6
:10088000120E11751E022096147F147E00120E1196
:100890003096FD7F147E00120E11751E06209514F1
:1008A0007F147E00120E113095FD7F147E00120E13
:1008B00011751E0A2094147F147E00120E113094BC
:1008C000FD7F147E00120E11751E0E7590FFC291F1
:1008D0002097147F147E00120E113097FD7F147E36
:1008E00000120E11751E032096147F147E00120E46
:1008F000113096FD7F147E00120E11751E07209593
:10090000147F147E00120E113095FD7F147E0012AC
:100910000E11751E0B2094147F147E00120E1130E0
:1009200094FD7F147E00120E11751E0F7590FFC28C
:10093000902097147F147E00120E113097FD7F14C3
:100940007E00120E11751E042096147F147E001274
:100950000E113096FD7F147E00120E11751E0820B8
:1009600095147F147E00120E113095FD7F147E00C9
:10097000120E11751E0C3094030208037F147E00C2
:10098000120E113094FD7F147E00120E11751E1090
:05099000020803AF1E88
:01099500223F
:100CF200E4F51F20B1147F147E00120E1130B1FDF5
:100D02007F147E00120E11751F0120B0147F147E15
:100D120000120E1130B0FD7F147E00120E11751FED
:100D22000220B2147F147E00120E1130B2FD7F1425
:100D32007E00120E11751F0320B3147F147E001261
:100D42000E1130B3FD7F147E00120E11751F04E5E3
:040D52001F60A0FF7F
:010D5600227A
:080DBA008E1B8F1CAB05AA047F
:100DC2007F017E00EB1BAC0270011A4C6009AC1B68
:070DD200AD1C120C1680EDB0
:010DD90022F7
:100E5700E4FBEF4E600A7C007D0A120C280B80F23F
:020E6700AF03D7
:010E69002266
:100E29005389F0438901758ACD758CD4C28DD28CD2
:070E3900D2A9D2AFC2B92219
:100E400053890F438910758B66758DFCC28FD28EC6
:070E5000D2ABD2AFC2BB22FE
:03000000020AE70A
:0C0AE700787FE4F6D8FD75811F020B2E0D
:100BFD00BB010689828A83E0225002E722BBFE02F6
:090C0D00E32289828A83E4932228
:100C1600EF8DF0A4A8F0CF8CF0A428CE8DF0A42EF2
:020C2600FE22AC
:100C2800BC000BBE0029EF8DF084FFADF022E4CCB0
:100C3800F875F008EF2FFFEE33FEEC33FCEE9DEC79
:100C4800984005FCEE9DFE0FD5F0E9E4CEFD22EDBF
:100C5800F8F5F0EE8420D21CFEADF075F008EF2F09
:100C6800FFED33FD4007985006D5F0F222C398FDFA
:050C78000FD5F0EA2297
:100AF300020E7AE493A3F8E493A34003F68001F291
:100B030008DFF48029E493A3F85407240CC8C33303
:100B1300C4540F4420C8834004F456800146F6DFD2
:100B2300E4800B0102040810204080900E6AE47EEA
:100B3300019360BCA3FF543F30E509541FFEE493C7
:100B4300A360010ECF54C025E060A840B8E493A38E
:100B5300FAE493A3F8E493A3C8C582C8CAC583CAB9
:100B6300F0A3C8C582C8CAC583CADFE9DEE780BE71
:010E79000078
:00000001FF
