:03000000020BFCF4
:0C0BFC00787FE4F6D8FD75811C020C43E4
:100D920054687265652070617373776F72643A008C
:100DA20073756363657373006661696C7572650060
:0E0DB20070726F6772657373206578697400E4
:10099600750803750944AF09AE08120E54E4F50A4A
:1009A600F50B8F0C850C0DF50E7BFF7A0D799202F7
:0E09B6000A8BE50C047003020A93E50C605FE7
:1009C4001208008F0FC3E50D950CF50EE50F1424E6
:1009D400F8500624FA602680E3850F137B017D011D
:1009E400AF0E120B55AE0AAF0B7C007D0A120D2B15
:1009F400EF250FF50BEC3EF50A150C80BFE50E60F4
:100A0400BB050CAE0AAF0B7C007D0A120D3D8E0AAD
:0F0A14008F0B150EAF0E7B017D01120C88809D9C
:100A2300120800EF24F0602004708A050CAE0AAFB0
:100A33000B7C007D0A120D3D8E0A8F0B7B017D011D
:100A4300AF0E120C880209B8E50BB50919E50AB512
:100A53000814120E677BFF7A0D79A2E4FDFF120AD8
:100A6300AB150C0209B87B10E4FDFF120C887BFF69
:100A73007A0D79AAE4FDFF120AAB7FF47E01120E10
:100A83003C7BFF7A0D7992E4FDFF120AAB0209B8B1
:100A93007FF47E01120E3C120E677BFF7A0D79B252
:080AA300E4FDFF120AAB80FE26
:020E7000200060
:030E6C00011C0066
:100E2100C2A6C2A5C2A78F807F017E00120E3CD24E
:0B0E3100A77F017E00120E3CC2A7222A
:0A0DC000AB19AA1AA91B120D12FFAD
:100DCA00D2A6C2A5C2A78F807F017E00120E3CD296
:0B0DDA00A77F017E00120E3CC2A72282
:100E0500E51C70177F38120E217F0C120E217F060C
:0C0E1500120E217F01120E21751C01221B
:100AAB008F178D188B198A1A891B120E05D3E51710
:100ABB00940F7480948040047F0180027F00E518BE
:100ACB00FD7C00D394017480948040047E018002ED
:100ADB007E00EE4F7073C3ED9401EC6480948050F4
:100AEB0034AB19AA1AA91B120D12605DC3E517943A
:100AFB001074809480E51750042480800224B0FF8A
:100B0B00120E21120DC07401251BF51BE4351AF5CD
:100B1B001A051780CCAB19AA1AA91B120D12602942
:100B2B00C3E517941074809480E517500424C0809B
:100B3B00022470FF120E21120DC07401251BF51B30
:0A0B4B00E4351AF51A051780CC22D4
:060B55008F108D118B12C0
:100B5B00851314120E05AF121512EF7003020BFB67
:100B6B00D3E510940F7480948040047F0180027F42
:100B7B0000E511FD7C00D394017480948040047EC9
:100B8B000180027E00EE4F7067C3ED9401EC648030
:100B9B009480E51050042480800224C0FF120E21A3
:100BAB00E512FD7C007F0A7E00120DE5AD147C0082
:100BBB00CFCDCFCECCCE120D3DEF2430FF120DCAD0
:100BCB000510D3E510940F748094804005751001C7
:100BDB000511E512FD7C007F0A7E00120DE5AD14B8
:100BEB007C00CFCDCFCECCCE120D3D8D14020B6140
:010BFB0022D7
:060C88008F108D118B128C
:100C8E00851013851114E4F515F516120E05D3E52E
:100C9E001194017480948040047F0180027F00E5EE
:100CAE0010D3940F7480948040047E0180027E00E5
:100CBE00EE4FFFE51270047E0180027E00EE4F7053
:100CCE0042C3E51695127480F865159850357BFF72
:100CDE007A0E7970AD14AF13120AABAF130513D39E
:100CEE00EF940F748094804005E4F5130514D3E55A
:100CFE0011940174809480500A0516E51670C20591
:030D0E001580BE8F
:010D110022BF
:050E67007F01020E21D5
:100E3C00EF1FAC0670011E4C600D0000007D0B7C9A
:070E4C00BEDCFEDDFC80E9C5
:010E5300227C
:10080000E4F510E51060030209937590FFC2932090
:1008100097137F14FE120E3C3097FD7F147E00125A
:100820000E3C7510012096147F147E00120E3C3091
:1008300096FD7F147E00120E3C7510052095147FE6
:10084000147E00120E3C3095FD7F147E00120E3C8B
:100850007510092094147F147E00120E3C3094FD14
:100860007F147E00120E3C75100D7590FFC2922011
:1008700097147F147E00120E3C3097FD7F147E008B
:10088000120E3C7510022096147F147E00120E3C4E
:100890003096FD7F147E00120E3C751006209514D4
:1008A0007F147E00120E3C3095FD7F147E00120EE8
:1008B0003C75100A2094147F147E00120E3C309474
:1008C000FD7F147E00120E3C75100E7590FFC291D4
:1008D0002097147F147E00120E3C3097FD7F147E0B
:1008E00000120E3C7510032096147F147E00120E29
:1008F0003C3096FD7F147E00120E3C75100720954B
:10090000147F147E00120E3C3095FD7F147E001281
:100910000E3C75100B2094147F147E00120E3C3098
:1009200094FD7F147E00120E3C75100F7590FFC26F
:10093000902097147F147E00120E3C3097FD7F1498
:100940007E00120E3C7510042096147F147E001257
:100950000E3C3096FD7F147E00120E3C7510082070
:1009600095147F147E00120E3C3095FD7F147E009E
:10097000120E3C75100C3094030208037F147E00A5
:10098000120E3C3094FD7F147E00120E3C75101048
:05099000020803AF1096
:01099500223F
:080DE5008E158F16AB05AA0460
:100DED007F017E00EB1BAC0270011A4C6009AC1543
:070DFD00AD16120D2B80ED75
:010E040022CB
:100E5400E4FBEF4E600A7C007D0A120D3D0B80F22C
:020E6400AF03DA
:010E66002269
:100C0800020996E493A3F8E493A34003F68001F263
:100C180008DFF48029E493A3F85407240CC8C333ED
:100C2800C4540F4420C8834004F456800146F6DFBC
:100C3800E4800B0102040810204080900E6CE47ED2
:100C4800019360BCA3FF543F30E509541FFEE493B1
:100C5800A360010ECF54C025E060A840B8E493A378
:100C6800FAE493A3F8E493A3C8C582C8CAC583CAA3
:100C7800F0A3C8C582C8CAC583CADFE9DEE780BE5B
:010E6F000082
:100D1200BB010689828A83E0225002E722BBFE02DF
:090D2200E32289828A83E4932212
:100D2B00EF8DF0A4A8F0CF8CF0A428CE8DF0A42EDC
:020D3B00FE2296
:100D3D00BC000BBE0029EF8DF084FFADF022E4CC9A
:100D4D00F875F008EF2FFFEE33FEEC33FCEE9DEC63
:100D5D00984005FCEE9DFE0FD5F0E9E4CEFD22EDA9
:100D6D00F8F5F0EE8420D21CFEADF075F008EF2FF3
:100D7D00FFED33FD4007985006D5F0F222C398FDE4
:050D8D000FD5F0EA2281
:00000001FF
