:03000000020800F3
:0C080000787FE4F6D8FD758114020847EB
:0C0916000A083F065B4F666D7D077F6F8F
:1008E400E4F512E512FD7C00C394087480948050F2
:0A08F400EFAF1212088C051280E924
:06088C008C138D14A90776
:10089200E97E007C00D39409748094805043C37431
:1008A200809480403CE513648094804034D3E51406
:1008B2009409E513648094805027EF1392A2EEC34B
:1008C20013FEEF13FF1392A3EEC313FEEF13139263
:1008D200A474082514F8E6F5807F64120923E4F570
:0108E2008095
:0108E30022F2
:1008FE00EF1FAC0670011E4C600D0000007D0B7CDE
:07090E00BEDCFEDDFC80E908
:0109150022BF
:0C092300AE071FEE600500000080F5220A
:10080C000208E4E493A3F8E493A34003F68001F216
:10081C0008DFF48029E493A3F85407240CC8C333ED
:10082C00C4540F4420C8834004F456800146F6DFBC
:10083C00E4800B0102040810204080900916E47E2D
:10084C00019360BCA3FF543F30E509541FFEE493B1
:10085C00A360010ECF54C025E060A840B8E493A378
:10086C00FAE493A3F8E493A3C8C582C8CAC583CAA3
:10087C00F0A3C8C582C8CAC583CADFE9DEE780BE5B
:0109220000D4
:00000001FF
