:030000000209B53D
:0C09B500787FE4F6D8FD75810E0209A3DE
:1008F10068656C6C6F20776F726C6461736466619C
:10090100736466617364666173646661736466616E
:0D09110073646661736466617364667300ED
:1009A30012098F7BFF7A0879F17D01E4FF120800B9
:0209B30080FEC4
:10094300C2A6C2A5C2A78F807F017E00120977D2FB
:0B095300A77F017E00120977C2A722D7
:0A091E00AB0AAA0BA90C12095EFF38
:10092800D2A6C2A5C2A78F807F017E00120977D206
:0B093800A77F017E00120977C2A722F2
:10098F007F381209437F0C1209437F061209437FF8
:04099F000102094305
:100800008F088D098B0A8A0B890CD3EF940F7480A3
:10081000948040047F0180027F00E509FD7C00D3C5
:1008200094017480948040047E0180027E00EE4F2B
:100830007073C3ED9401EC648094805034AB0AAAC9
:100840000BA90C12095E605DC3E5089410748094D6
:1008500080E50850042480800224B0FF120943126E
:10086000091E7401250CF50CE4350BF50B05088009
:10087000CCAB0AAA0BA90C12095E6029C3E5089447
:100880001074809480E508500424C080022470FF16
:1008900012094312091E7401250CF50CE4350BF501
:0608A0000B050880CC22CC
:1008A6008F0D8B0ED3EF940F7480948040047F01DC
:1008B60080027F00EDFB7A00D3940174809480401F
:1008C600047E0180027E00EE4F701FC3EB9401EAA6
:1008D60064809480E50D50042480800224C0FF12B9
:0B08E6000943E50E2430FF1209282210
:0509C1007F0102094363
:10097700EF1FAC0670011E4C600D0000007D0B7C64
:07098700BEDCFEDDFC80E98F
:01098E002246
:10095E00BB010689828A83E0225002E722BBFE0297
:09096E00E32289828A83E49322CA
:00000001FF
